{
  "_format": "hh-sol-artifact-1",
  "contractName": "mintNft",
  "sourceName": "contracts/mintNft.sol",
  "abi": [
    {
      "inputs": [
        {
          "internalType": "address",
          "name": "aMarketContractAddress",
          "type": "address"
        }
      ],
      "stateMutability": "nonpayable",
      "type": "constructor"
    },
    {
      "anonymous": false,
      "inputs": [
        {
          "indexed": true,
          "internalType": "address",
          "name": "owner",
          "type": "address"
        },
        {
          "indexed": true,
          "internalType": "address",
          "name": "approved",
          "type": "address"
        },
        {
          "indexed": true,
          "internalType": "uint256",
          "name": "tokenId",
          "type": "uint256"
        }
      ],
      "name": "Approval",
      "type": "event"
    },
    {
      "anonymous": false,
      "inputs": [
        {
          "indexed": true,
          "internalType": "address",
          "name": "owner",
          "type": "address"
        },
        {
          "indexed": true,
          "internalType": "address",
          "name": "operator",
          "type": "address"
        },
        {
          "indexed": false,
          "internalType": "bool",
          "name": "approved",
          "type": "bool"
        }
      ],
      "name": "ApprovalForAll",
      "type": "event"
    },
    {
      "anonymous": false,
      "inputs": [
        {
          "indexed": true,
          "internalType": "address",
          "name": "from",
          "type": "address"
        },
        {
          "indexed": true,
          "internalType": "address",
          "name": "to",
          "type": "address"
        },
        {
          "indexed": true,
          "internalType": "uint256",
          "name": "tokenId",
          "type": "uint256"
        }
      ],
      "name": "Transfer",
      "type": "event"
    },
    {
      "anonymous": false,
      "inputs": [
        {
          "indexed": true,
          "internalType": "uint256",
          "name": "tokenId",
          "type": "uint256"
        }
      ],
      "name": "minted",
      "type": "event"
    },
    {
      "inputs": [],
      "name": "_tokenId",
      "outputs": [
        {
          "internalType": "uint256",
          "name": "_value",
          "type": "uint256"
        }
      ],
      "stateMutability": "view",
      "type": "function"
    },
    {
      "inputs": [
        {
          "internalType": "address",
          "name": "to",
          "type": "address"
        },
        {
          "internalType": "uint256",
          "name": "tokenId",
          "type": "uint256"
        }
      ],
      "name": "approve",
      "outputs": [],
      "stateMutability": "nonpayable",
      "type": "function"
    },
    {
      "inputs": [
        {
          "internalType": "address",
          "name": "owner",
          "type": "address"
        }
      ],
      "name": "balanceOf",
      "outputs": [
        {
          "internalType": "uint256",
          "name": "",
          "type": "uint256"
        }
      ],
      "stateMutability": "view",
      "type": "function"
    },
    {
      "inputs": [
        {
          "internalType": "uint256",
          "name": "tokenId",
          "type": "uint256"
        }
      ],
      "name": "getApproved",
      "outputs": [
        {
          "internalType": "address",
          "name": "",
          "type": "address"
        }
      ],
      "stateMutability": "view",
      "type": "function"
    },
    {
      "inputs": [
        {
          "internalType": "address",
          "name": "owner",
          "type": "address"
        },
        {
          "internalType": "address",
          "name": "operator",
          "type": "address"
        }
      ],
      "name": "isApprovedForAll",
      "outputs": [
        {
          "internalType": "bool",
          "name": "",
          "type": "bool"
        }
      ],
      "stateMutability": "view",
      "type": "function"
    },
    {
      "inputs": [
        {
          "internalType": "string",
          "name": "tokenURI",
          "type": "string"
        }
      ],
      "name": "mintNftToKeep",
      "outputs": [
        {
          "internalType": "uint256",
          "name": "tokenId",
          "type": "uint256"
        }
      ],
      "stateMutability": "payable",
      "type": "function"
    },
    {
      "inputs": [
        {
          "internalType": "string",
          "name": "_tokenURI",
          "type": "string"
        }
      ],
      "name": "mintNftToSell",
      "outputs": [
        {
          "internalType": "uint256",
          "name": "tokenId",
          "type": "uint256"
        }
      ],
      "stateMutability": "nonpayable",
      "type": "function"
    },
    {
      "inputs": [],
      "name": "mintingFees",
      "outputs": [
        {
          "internalType": "uint256",
          "name": "",
          "type": "uint256"
        }
      ],
      "stateMutability": "view",
      "type": "function"
    },
    {
      "inputs": [],
      "name": "name",
      "outputs": [
        {
          "internalType": "string",
          "name": "",
          "type": "string"
        }
      ],
      "stateMutability": "view",
      "type": "function"
    },
    {
      "inputs": [
        {
          "internalType": "uint256",
          "name": "tokenId",
          "type": "uint256"
        }
      ],
      "name": "ownerOf",
      "outputs": [
        {
          "internalType": "address",
          "name": "",
          "type": "address"
        }
      ],
      "stateMutability": "view",
      "type": "function"
    },
    {
      "inputs": [
        {
          "internalType": "address",
          "name": "from",
          "type": "address"
        },
        {
          "internalType": "address",
          "name": "to",
          "type": "address"
        },
        {
          "internalType": "uint256",
          "name": "tokenId",
          "type": "uint256"
        }
      ],
      "name": "safeTransferFrom",
      "outputs": [],
      "stateMutability": "nonpayable",
      "type": "function"
    },
    {
      "inputs": [
        {
          "internalType": "address",
          "name": "from",
          "type": "address"
        },
        {
          "internalType": "address",
          "name": "to",
          "type": "address"
        },
        {
          "internalType": "uint256",
          "name": "tokenId",
          "type": "uint256"
        },
        {
          "internalType": "bytes",
          "name": "data",
          "type": "bytes"
        }
      ],
      "name": "safeTransferFrom",
      "outputs": [],
      "stateMutability": "nonpayable",
      "type": "function"
    },
    {
      "inputs": [
        {
          "internalType": "address",
          "name": "operator",
          "type": "address"
        },
        {
          "internalType": "bool",
          "name": "approved",
          "type": "bool"
        }
      ],
      "name": "setApprovalForAll",
      "outputs": [],
      "stateMutability": "nonpayable",
      "type": "function"
    },
    {
      "inputs": [
        {
          "internalType": "bytes4",
          "name": "interfaceId",
          "type": "bytes4"
        }
      ],
      "name": "supportsInterface",
      "outputs": [
        {
          "internalType": "bool",
          "name": "",
          "type": "bool"
        }
      ],
      "stateMutability": "view",
      "type": "function"
    },
    {
      "inputs": [],
      "name": "symbol",
      "outputs": [
        {
          "internalType": "string",
          "name": "",
          "type": "string"
        }
      ],
      "stateMutability": "view",
      "type": "function"
    },
    {
      "inputs": [
        {
          "internalType": "uint256",
          "name": "tokenId",
          "type": "uint256"
        }
      ],
      "name": "tokenURI",
      "outputs": [
        {
          "internalType": "string",
          "name": "",
          "type": "string"
        }
      ],
      "stateMutability": "view",
      "type": "function"
    },
    {
      "inputs": [
        {
          "internalType": "address",
          "name": "from",
          "type": "address"
        },
        {
          "internalType": "address",
          "name": "to",
          "type": "address"
        },
        {
          "internalType": "uint256",
          "name": "tokenId",
          "type": "uint256"
        }
      ],
      "name": "transferFrom",
      "outputs": [],
      "stateMutability": "nonpayable",
      "type": "function"
    }
  ],
  "bytecode": "0x608060405266038d7ea4c68000600a553480156200001c57600080fd5b506040516200303b3803806200303b83398181016040528101906200004291906200024c565b6040518060400160405280600781526020017f496d6167696361000000000000000000000000000000000000000000000000008152506040518060400160405280600581526020017f494d4743410000000000000000000000000000000000000000000000000000008152508160009080519060200190620000c692919062000132565b508060019080519060200190620000df92919062000132565b505050600160078190555080600960006101000a81548173ffffffffffffffffffffffffffffffffffffffff021916908373ffffffffffffffffffffffffffffffffffffffff16021790555050620002e3565b8280546200014090620002ad565b90600052602060002090601f016020900481019282620001645760008555620001b0565b82601f106200017f57805160ff1916838001178555620001b0565b82800160010185558215620001b0579182015b82811115620001af57825182559160200191906001019062000192565b5b509050620001bf9190620001c3565b5090565b5b80821115620001de576000816000905550600101620001c4565b5090565b600080fd5b600073ffffffffffffffffffffffffffffffffffffffff82169050919050565b60006200021482620001e7565b9050919050565b620002268162000207565b81146200023257600080fd5b50565b60008151905062000246816200021b565b92915050565b600060208284031215620002655762000264620001e2565b5b6000620002758482850162000235565b91505092915050565b7f4e487b7100000000000000000000000000000000000000000000000000000000600052602260045260246000fd5b60006002820490506001821680620002c657607f821691505b60208210811415620002dd57620002dc6200027e565b5b50919050565b612d4880620002f36000396000f3fe6080604052600436106100fe5760003560e01c806370a0823111610095578063b07306a211610064578063b07306a214610347578063b88d4fde14610377578063c87b56dd146103a0578063e985e9c5146103dd578063ec16139d1461041a576100fe565b806370a082311461028b5780638c2fa9ea146102c857806395d89b41146102f3578063a22cb4651461031e576100fe565b806323b872dd116100d157806323b872dd146101d157806324822514146101fa57806342842e0e146102255780636352211e1461024e576100fe565b806301ffc9a71461010357806306fdde0314610140578063081812fc1461016b578063095ea7b3146101a8575b600080fd5b34801561010f57600080fd5b5061012a60048036038101906101259190611c2d565b610457565b6040516101379190611c75565b60405180910390f35b34801561014c57600080fd5b50610155610539565b6040516101629190611d29565b60405180910390f35b34801561017757600080fd5b50610192600480360381019061018d9190611d81565b6105cb565b60405161019f9190611def565b60405180910390f35b3480156101b457600080fd5b506101cf60048036038101906101ca9190611e36565b610611565b005b3480156101dd57600080fd5b506101f860048036038101906101f39190611e76565b610729565b005b34801561020657600080fd5b5061020f610789565b60405161021c9190611ed8565b60405180910390f35b34801561023157600080fd5b5061024c60048036038101906102479190611e76565b610795565b005b34801561025a57600080fd5b5061027560048036038101906102709190611d81565b6107b5565b6040516102829190611def565b60405180910390f35b34801561029757600080fd5b506102b260048036038101906102ad9190611ef3565b610867565b6040516102bf9190611ed8565b60405180910390f35b3480156102d457600080fd5b506102dd61091f565b6040516102ea9190611ed8565b60405180910390f35b3480156102ff57600080fd5b50610308610925565b6040516103159190611d29565b60405180910390f35b34801561032a57600080fd5b5061034560048036038101906103409190611f4c565b6109b7565b005b610361600480360381019061035c91906120c1565b6109cd565b60405161036e9190611ed8565b60405180910390f35b34801561038357600080fd5b5061039e600480360381019061039991906121ab565b610af8565b005b3480156103ac57600080fd5b506103c760048036038101906103c29190611d81565b610b5a565b6040516103d49190611d29565b60405180910390f35b3480156103e957600080fd5b5061040460048036038101906103ff919061222e565b610c6d565b6040516104119190611c75565b60405180910390f35b34801561042657600080fd5b50610441600480360381019061043c91906120c1565b610d01565b60405161044e9190611ed8565b60405180910390f35b60007f80ac58cd000000000000000000000000000000000000000000000000000000007bffffffffffffffffffffffffffffffffffffffffffffffffffffffff1916827bffffffffffffffffffffffffffffffffffffffffffffffffffffffff1916148061052257507f5b5e139f000000000000000000000000000000000000000000000000000000007bffffffffffffffffffffffffffffffffffffffffffffffffffffffff1916827bffffffffffffffffffffffffffffffffffffffffffffffffffffffff1916145b80610532575061053182610de8565b5b9050919050565b6060600080546105489061229d565b80601f01602080910402602001604051908101604052809291908181526020018280546105749061229d565b80156105c15780601f10610596576101008083540402835291602001916105c1565b820191906000526020600020905b8154815290600101906020018083116105a457829003601f168201915b5050505050905090565b60006105d682610e52565b6004600083815260200190815260200160002060009054906101000a900473ffffffffffffffffffffffffffffffffffffffff169050919050565b600061061c826107b5565b90508073ffffffffffffffffffffffffffffffffffffffff168373ffffffffffffffffffffffffffffffffffffffff16141561068d576040517f08c379a000000000000000000000000000000000000000000000000000000000815260040161068490612341565b60405180910390fd5b8073ffffffffffffffffffffffffffffffffffffffff166106ac610e9d565b73ffffffffffffffffffffffffffffffffffffffff1614806106db57506106da816106d5610e9d565b610c6d565b5b61071a576040517f08c379a0000000000000000000000000000000000000000000000000000000008152600401610711906123d3565b60405180910390fd5b6107248383610ea5565b505050565b61073a610734610e9d565b82610f5e565b610779576040517f08c379a000000000000000000000000000000000000000000000000000000000815260040161077090612465565b60405180910390fd5b610784838383610ff3565b505050565b60088060000154905081565b6107b083838360405180602001604052806000815250610af8565b505050565b6000806002600084815260200190815260200160002060009054906101000a900473ffffffffffffffffffffffffffffffffffffffff169050600073ffffffffffffffffffffffffffffffffffffffff168173ffffffffffffffffffffffffffffffffffffffff16141561085e576040517f08c379a0000000000000000000000000000000000000000000000000000000008152600401610855906124d1565b60405180910390fd5b80915050919050565b60008073ffffffffffffffffffffffffffffffffffffffff168273ffffffffffffffffffffffffffffffffffffffff1614156108d8576040517f08c379a00000000000000000000000000000000000000000000000000000000081526004016108cf90612563565b60405180910390fd5b600360008373ffffffffffffffffffffffffffffffffffffffff1673ffffffffffffffffffffffffffffffffffffffff168152602001908152602001600020549050919050565b600a5481565b6060600180546109349061229d565b80601f01602080910402602001604051908101604052809291908181526020018280546109609061229d565b80156109ad5780601f10610982576101008083540402835291602001916109ad565b820191906000526020600020905b81548152906001019060200180831161099057829003601f168201915b5050505050905090565b6109c96109c2610e9d565b838361125a565b5050565b600060026007541415610a15576040517f08c379a0000000000000000000000000000000000000000000000000000000008152600401610a0c906125cf565b60405180910390fd5b6002600781905550600a543414610a61576040517f08c379a0000000000000000000000000000000000000000000000000000000008152600401610a5890612661565b60405180910390fd5b610a6b60086113c7565b6000610a7760086113dd565b9050610a8333826113eb565b610a8d8184611409565b610aba600960009054906101000a900473ffffffffffffffffffffffffffffffffffffffff1660016109b7565b807f7dc0bf3ff15656545da2c5f0567962839fe379f74aacdfc4e8025bb24e0c082d60405160405180910390a2809150506001600781905550919050565b610b09610b03610e9d565b83610f5e565b610b48576040517f08c379a0000000000000000000000000000000000000000000000000000000008152600401610b3f90612465565b60405180910390fd5b610b548484848461147d565b50505050565b6060610b6582610e52565b6000600660008481526020019081526020016000208054610b859061229d565b80601f0160208091040260200160405190810160405280929190818152602001828054610bb19061229d565b8015610bfe5780601f10610bd357610100808354040283529160200191610bfe565b820191906000526020600020905b815481529060010190602001808311610be157829003601f168201915b505050505090506000610c0f6114d9565b9050600081511415610c25578192505050610c68565b600082511115610c5a578082604051602001610c429291906126bd565b60405160208183030381529060405292505050610c68565b610c63846114f0565b925050505b919050565b6000600560008473ffffffffffffffffffffffffffffffffffffffff1673ffffffffffffffffffffffffffffffffffffffff16815260200190815260200160002060008373ffffffffffffffffffffffffffffffffffffffff1673ffffffffffffffffffffffffffffffffffffffff16815260200190815260200160002060009054906101000a900460ff16905092915050565b600060026007541415610d49576040517f08c379a0000000000000000000000000000000000000000000000000000000008152600401610d40906125cf565b60405180910390fd5b6002600781905550610d5b60086113c7565b6000610d6760086113dd565b9050610d7333826113eb565b610d7d8184611409565b610daa600960009054906101000a900473ffffffffffffffffffffffffffffffffffffffff1660016109b7565b807f7dc0bf3ff15656545da2c5f0567962839fe379f74aacdfc4e8025bb24e0c082d60405160405180910390a2809150506001600781905550919050565b60007f01ffc9a7000000000000000000000000000000000000000000000000000000007bffffffffffffffffffffffffffffffffffffffffffffffffffffffff1916827bffffffffffffffffffffffffffffffffffffffffffffffffffffffff1916149050919050565b610e5b81611558565b610e9a576040517f08c379a0000000000000000000000000000000000000000000000000000000008152600401610e91906124d1565b60405180910390fd5b50565b600033905090565b816004600083815260200190815260200160002060006101000a81548173ffffffffffffffffffffffffffffffffffffffff021916908373ffffffffffffffffffffffffffffffffffffffff160217905550808273ffffffffffffffffffffffffffffffffffffffff16610f18836107b5565b73ffffffffffffffffffffffffffffffffffffffff167f8c5be1e5ebec7d5bd14f71427d1e84f3dd0314c0f7b2291e5b200ac8c7c3b92560405160405180910390a45050565b600080610f6a836107b5565b90508073ffffffffffffffffffffffffffffffffffffffff168473ffffffffffffffffffffffffffffffffffffffff161480610fac5750610fab8185610c6d565b5b80610fea57508373ffffffffffffffffffffffffffffffffffffffff16610fd2846105cb565b73ffffffffffffffffffffffffffffffffffffffff16145b91505092915050565b8273ffffffffffffffffffffffffffffffffffffffff16611013826107b5565b73ffffffffffffffffffffffffffffffffffffffff1614611069576040517f08c379a000000000000000000000000000000000000000000000000000000000815260040161106090612753565b60405180910390fd5b600073ffffffffffffffffffffffffffffffffffffffff168273ffffffffffffffffffffffffffffffffffffffff1614156110d9576040517f08c379a00000000000000000000000000000000000000000000000000000000081526004016110d0906127e5565b60405180910390fd5b6110e48383836115c4565b6110ef600082610ea5565b6001600360008573ffffffffffffffffffffffffffffffffffffffff1673ffffffffffffffffffffffffffffffffffffffff168152602001908152602001600020600082825461113f9190612834565b925050819055506001600360008473ffffffffffffffffffffffffffffffffffffffff1673ffffffffffffffffffffffffffffffffffffffff16815260200190815260200160002060008282546111969190612868565b92505081905550816002600083815260200190815260200160002060006101000a81548173ffffffffffffffffffffffffffffffffffffffff021916908373ffffffffffffffffffffffffffffffffffffffff160217905550808273ffffffffffffffffffffffffffffffffffffffff168473ffffffffffffffffffffffffffffffffffffffff167fddf252ad1be2c89b69c2b068fc378daa952ba7f163c4a11628f55a4df523b3ef60405160405180910390a46112558383836115c9565b505050565b8173ffffffffffffffffffffffffffffffffffffffff168373ffffffffffffffffffffffffffffffffffffffff1614156112c9576040517f08c379a00000000000000000000000000000000000000000000000000000000081526004016112c09061290a565b60405180910390fd5b80600560008573ffffffffffffffffffffffffffffffffffffffff1673ffffffffffffffffffffffffffffffffffffffff16815260200190815260200160002060008473ffffffffffffffffffffffffffffffffffffffff1673ffffffffffffffffffffffffffffffffffffffff16815260200190815260200160002060006101000a81548160ff0219169083151502179055508173ffffffffffffffffffffffffffffffffffffffff168373ffffffffffffffffffffffffffffffffffffffff167f17307eab39ab6107e8899845ad3d59bd9653f200f220920489ca2b5937696c31836040516113ba9190611c75565b60405180910390a3505050565b6001816000016000828254019250508190555050565b600081600001549050919050565b6114058282604051806020016040528060008152506115ce565b5050565b61141282611558565b611451576040517f08c379a00000000000000000000000000000000000000000000000000000000081526004016114489061299c565b60405180910390fd5b80600660008481526020019081526020016000209080519060200190611478929190611b1e565b505050565b611488848484610ff3565b61149484848484611629565b6114d3576040517f08c379a00000000000000000000000000000000000000000000000000000000081526004016114ca90612a2e565b60405180910390fd5b50505050565b606060405180602001604052806000815250905090565b60606114fb82610e52565b60006115056114d9565b905060008151116115255760405180602001604052806000815250611550565b8061152f846117c0565b6040516020016115409291906126bd565b6040516020818303038152906040525b915050919050565b60008073ffffffffffffffffffffffffffffffffffffffff166002600084815260200190815260200160002060009054906101000a900473ffffffffffffffffffffffffffffffffffffffff1673ffffffffffffffffffffffffffffffffffffffff1614159050919050565b505050565b505050565b6115d88383611921565b6115e56000848484611629565b611624576040517f08c379a000000000000000000000000000000000000000000000000000000000815260040161161b90612a2e565b60405180910390fd5b505050565b600061164a8473ffffffffffffffffffffffffffffffffffffffff16611afb565b156117b3578373ffffffffffffffffffffffffffffffffffffffff1663150b7a02611673610e9d565b8786866040518563ffffffff1660e01b81526004016116959493929190612aa3565b602060405180830381600087803b1580156116af57600080fd5b505af19250505080156116e057506040513d601f19601f820116820180604052508101906116dd9190612b04565b60015b611763573d8060008114611710576040519150601f19603f3d011682016040523d82523d6000602084013e611715565b606091505b5060008151141561175b576040517f08c379a000000000000000000000000000000000000000000000000000000000815260040161175290612a2e565b60405180910390fd5b805181602001fd5b63150b7a0260e01b7bffffffffffffffffffffffffffffffffffffffffffffffffffffffff1916817bffffffffffffffffffffffffffffffffffffffffffffffffffffffff1916149150506117b8565b600190505b949350505050565b60606000821415611808576040518060400160405280600181526020017f3000000000000000000000000000000000000000000000000000000000000000815250905061191c565b600082905060005b6000821461183a57808061182390612b31565b915050600a826118339190612ba9565b9150611810565b60008167ffffffffffffffff81111561185657611855611f96565b5b6040519080825280601f01601f1916602001820160405280156118885781602001600182028036833780820191505090505b5090505b60008514611915576001826118a19190612834565b9150600a856118b09190612bda565b60306118bc9190612868565b60f81b8183815181106118d2576118d1612c0b565b5b60200101907effffffffffffffffffffffffffffffffffffffffffffffffffffffffffffff1916908160001a905350600a8561190e9190612ba9565b945061188c565b8093505050505b919050565b600073ffffffffffffffffffffffffffffffffffffffff168273ffffffffffffffffffffffffffffffffffffffff161415611991576040517f08c379a000000000000000000000000000000000000000000000000000000000815260040161198890612c86565b60405180910390fd5b61199a81611558565b156119da576040517f08c379a00000000000000000000000000000000000000000000000000000000081526004016119d190612cf2565b60405180910390fd5b6119e6600083836115c4565b6001600360008473ffffffffffffffffffffffffffffffffffffffff1673ffffffffffffffffffffffffffffffffffffffff1681526020019081526020016000206000828254611a369190612868565b92505081905550816002600083815260200190815260200160002060006101000a81548173ffffffffffffffffffffffffffffffffffffffff021916908373ffffffffffffffffffffffffffffffffffffffff160217905550808273ffffffffffffffffffffffffffffffffffffffff16600073ffffffffffffffffffffffffffffffffffffffff167fddf252ad1be2c89b69c2b068fc378daa952ba7f163c4a11628f55a4df523b3ef60405160405180910390a4611af7600083836115c9565b5050565b6000808273ffffffffffffffffffffffffffffffffffffffff163b119050919050565b828054611b2a9061229d565b90600052602060002090601f016020900481019282611b4c5760008555611b93565b82601f10611b6557805160ff1916838001178555611b93565b82800160010185558215611b93579182015b82811115611b92578251825591602001919060010190611b77565b5b509050611ba09190611ba4565b5090565b5b80821115611bbd576000816000905550600101611ba5565b5090565b6000604051905090565b600080fd5b600080fd5b60007fffffffff0000000000000000000000000000000000000000000000000000000082169050919050565b611c0a81611bd5565b8114611c1557600080fd5b50565b600081359050611c2781611c01565b92915050565b600060208284031215611c4357611c42611bcb565b5b6000611c5184828501611c18565b91505092915050565b60008115159050919050565b611c6f81611c5a565b82525050565b6000602082019050611c8a6000830184611c66565b92915050565b600081519050919050565b600082825260208201905092915050565b60005b83811015611cca578082015181840152602081019050611caf565b83811115611cd9576000848401525b50505050565b6000601f19601f8301169050919050565b6000611cfb82611c90565b611d058185611c9b565b9350611d15818560208601611cac565b611d1e81611cdf565b840191505092915050565b60006020820190508181036000830152611d438184611cf0565b905092915050565b6000819050919050565b611d5e81611d4b565b8114611d6957600080fd5b50565b600081359050611d7b81611d55565b92915050565b600060208284031215611d9757611d96611bcb565b5b6000611da584828501611d6c565b91505092915050565b600073ffffffffffffffffffffffffffffffffffffffff82169050919050565b6000611dd982611dae565b9050919050565b611de981611dce565b82525050565b6000602082019050611e046000830184611de0565b92915050565b611e1381611dce565b8114611e1e57600080fd5b50565b600081359050611e3081611e0a565b92915050565b60008060408385031215611e4d57611e4c611bcb565b5b6000611e5b85828601611e21565b9250506020611e6c85828601611d6c565b9150509250929050565b600080600060608486031215611e8f57611e8e611bcb565b5b6000611e9d86828701611e21565b9350506020611eae86828701611e21565b9250506040611ebf86828701611d6c565b9150509250925092565b611ed281611d4b565b82525050565b6000602082019050611eed6000830184611ec9565b92915050565b600060208284031215611f0957611f08611bcb565b5b6000611f1784828501611e21565b91505092915050565b611f2981611c5a565b8114611f3457600080fd5b50565b600081359050611f4681611f20565b92915050565b60008060408385031215611f6357611f62611bcb565b5b6000611f7185828601611e21565b9250506020611f8285828601611f37565b9150509250929050565b600080fd5b600080fd5b7f4e487b7100000000000000000000000000000000000000000000000000000000600052604160045260246000fd5b611fce82611cdf565b810181811067ffffffffffffffff82111715611fed57611fec611f96565b5b80604052505050565b6000612000611bc1565b905061200c8282611fc5565b919050565b600067ffffffffffffffff82111561202c5761202b611f96565b5b61203582611cdf565b9050602081019050919050565b82818337600083830152505050565b600061206461205f84612011565b611ff6565b9050828152602081018484840111156120805761207f611f91565b5b61208b848285612042565b509392505050565b600082601f8301126120a8576120a7611f8c565b5b81356120b8848260208601612051565b91505092915050565b6000602082840312156120d7576120d6611bcb565b5b600082013567ffffffffffffffff8111156120f5576120f4611bd0565b5b61210184828501612093565b91505092915050565b600067ffffffffffffffff82111561212557612124611f96565b5b61212e82611cdf565b9050602081019050919050565b600061214e6121498461210a565b611ff6565b90508281526020810184848401111561216a57612169611f91565b5b612175848285612042565b509392505050565b600082601f83011261219257612191611f8c565b5b81356121a284826020860161213b565b91505092915050565b600080600080608085870312156121c5576121c4611bcb565b5b60006121d387828801611e21565b94505060206121e487828801611e21565b93505060406121f587828801611d6c565b925050606085013567ffffffffffffffff81111561221657612215611bd0565b5b6122228782880161217d565b91505092959194509250565b6000806040838503121561224557612244611bcb565b5b600061225385828601611e21565b925050602061226485828601611e21565b9150509250929050565b7f4e487b7100000000000000000000000000000000000000000000000000000000600052602260045260246000fd5b600060028204905060018216806122b557607f821691505b602082108114156122c9576122c861226e565b5b50919050565b7f4552433732313a20617070726f76616c20746f2063757272656e74206f776e6560008201527f7200000000000000000000000000000000000000000000000000000000000000602082015250565b600061232b602183611c9b565b9150612336826122cf565b604082019050919050565b6000602082019050818103600083015261235a8161231e565b9050919050565b7f4552433732313a20617070726f76652063616c6c6572206973206e6f7420746f60008201527f6b656e206f776e6572206e6f7220617070726f76656420666f7220616c6c0000602082015250565b60006123bd603e83611c9b565b91506123c882612361565b604082019050919050565b600060208201905081810360008301526123ec816123b0565b9050919050565b7f4552433732313a2063616c6c6572206973206e6f7420746f6b656e206f776e6560008201527f72206e6f7220617070726f766564000000000000000000000000000000000000602082015250565b600061244f602e83611c9b565b915061245a826123f3565b604082019050919050565b6000602082019050818103600083015261247e81612442565b9050919050565b7f4552433732313a20696e76616c696420746f6b656e2049440000000000000000600082015250565b60006124bb601883611c9b565b91506124c682612485565b602082019050919050565b600060208201905081810360008301526124ea816124ae565b9050919050565b7f4552433732313a2061646472657373207a65726f206973206e6f74206120766160008201527f6c6964206f776e65720000000000000000000000000000000000000000000000602082015250565b600061254d602983611c9b565b9150612558826124f1565b604082019050919050565b6000602082019050818103600083015261257c81612540565b9050919050565b7f5265656e7472616e637947756172643a207265656e7472616e742063616c6c00600082015250565b60006125b9601f83611c9b565b91506125c482612583565b602082019050919050565b600060208201905081810360008301526125e8816125ac565b9050919050565b7f456e7375726520746f2050617920746865204578616374204d696e74696e672060008201527f4665657300000000000000000000000000000000000000000000000000000000602082015250565b600061264b602483611c9b565b9150612656826125ef565b604082019050919050565b6000602082019050818103600083015261267a8161263e565b9050919050565b600081905092915050565b600061269782611c90565b6126a18185612681565b93506126b1818560208601611cac565b80840191505092915050565b60006126c9828561268c565b91506126d5828461268c565b91508190509392505050565b7f4552433732313a207472616e736665722066726f6d20696e636f72726563742060008201527f6f776e6572000000000000000000000000000000000000000000000000000000602082015250565b600061273d602583611c9b565b9150612748826126e1565b604082019050919050565b6000602082019050818103600083015261276c81612730565b9050919050565b7f4552433732313a207472616e7366657220746f20746865207a65726f2061646460008201527f7265737300000000000000000000000000000000000000000000000000000000602082015250565b60006127cf602483611c9b565b91506127da82612773565b604082019050919050565b600060208201905081810360008301526127fe816127c2565b9050919050565b7f4e487b7100000000000000000000000000000000000000000000000000000000600052601160045260246000fd5b600061283f82611d4b565b915061284a83611d4b565b92508282101561285d5761285c612805565b5b828203905092915050565b600061287382611d4b565b915061287e83611d4b565b9250827fffffffffffffffffffffffffffffffffffffffffffffffffffffffffffffffff038211156128b3576128b2612805565b5b828201905092915050565b7f4552433732313a20617070726f766520746f2063616c6c657200000000000000600082015250565b60006128f4601983611c9b565b91506128ff826128be565b602082019050919050565b60006020820190508181036000830152612923816128e7565b9050919050565b7f45524337323155524953746f726167653a2055524920736574206f66206e6f6e60008201527f6578697374656e7420746f6b656e000000000000000000000000000000000000602082015250565b6000612986602e83611c9b565b91506129918261292a565b604082019050919050565b600060208201905081810360008301526129b581612979565b9050919050565b7f4552433732313a207472616e7366657220746f206e6f6e20455243373231526560008201527f63656976657220696d706c656d656e7465720000000000000000000000000000602082015250565b6000612a18603283611c9b565b9150612a23826129bc565b604082019050919050565b60006020820190508181036000830152612a4781612a0b565b9050919050565b600081519050919050565b600082825260208201905092915050565b6000612a7582612a4e565b612a7f8185612a59565b9350612a8f818560208601611cac565b612a9881611cdf565b840191505092915050565b6000608082019050612ab86000830187611de0565b612ac56020830186611de0565b612ad26040830185611ec9565b8181036060830152612ae48184612a6a565b905095945050505050565b600081519050612afe81611c01565b92915050565b600060208284031215612b1a57612b19611bcb565b5b6000612b2884828501612aef565b91505092915050565b6000612b3c82611d4b565b91507fffffffffffffffffffffffffffffffffffffffffffffffffffffffffffffffff821415612b6f57612b6e612805565b5b600182019050919050565b7f4e487b7100000000000000000000000000000000000000000000000000000000600052601260045260246000fd5b6000612bb482611d4b565b9150612bbf83611d4b565b925082612bcf57612bce612b7a565b5b828204905092915050565b6000612be582611d4b565b9150612bf083611d4b565b925082612c0057612bff612b7a565b5b828206905092915050565b7f4e487b7100000000000000000000000000000000000000000000000000000000600052603260045260246000fd5b7f4552433732313a206d696e7420746f20746865207a65726f2061646472657373600082015250565b6000612c70602083611c9b565b9150612c7b82612c3a565b602082019050919050565b60006020820190508181036000830152612c9f81612c63565b9050919050565b7f4552433732313a20746f6b656e20616c7265616479206d696e74656400000000600082015250565b6000612cdc601c83611c9b565b9150612ce782612ca6565b602082019050919050565b60006020820190508181036000830152612d0b81612ccf565b905091905056fea2646970667358221220aa24c13379de86dd430f3a9deeb1772257d058d6af9f8cb28ebb16c32e54525f64736f6c63430008090033",
  "linkReferences": {},
  "deployedLinkReferences": {}
}