{
  "_format": "hh-sol-artifact-1",
  "contractName": "imagicaMarket",
  "sourceName": "contracts/ImagicaMarket.sol",
  "abi": [
    {
      "inputs": [],
      "stateMutability": "nonpayable",
      "type": "constructor"
    },
    {
      "anonymous": false,
      "inputs": [
        {
          "indexed": true,
          "internalType": "uint256",
          "name": "tokenId",
          "type": "uint256"
        },
        {
          "indexed": true,
          "internalType": "uint256",
          "name": "itemId",
          "type": "uint256"
        },
        {
          "indexed": true,
          "internalType": "address",
          "name": "contractMintedFrom",
          "type": "address"
        },
        {
          "indexed": false,
          "internalType": "address",
          "name": "seller",
          "type": "address"
        },
        {
          "indexed": false,
          "internalType": "address",
          "name": "owner",
          "type": "address"
        },
        {
          "indexed": false,
          "internalType": "uint256",
          "name": "price",
          "type": "uint256"
        },
        {
          "indexed": false,
          "internalType": "bool",
          "name": "sold",
          "type": "bool"
        },
        {
          "indexed": false,
          "internalType": "bool",
          "name": "exists",
          "type": "bool"
        }
      ],
      "name": "nftMinted",
      "type": "event"
    },
    {
      "inputs": [
        {
          "internalType": "address",
          "name": "contractMintedFrom",
          "type": "address"
        },
        {
          "internalType": "uint256",
          "name": "itemId",
          "type": "uint256"
        }
      ],
      "name": "ImagicabuyNft",
      "outputs": [],
      "stateMutability": "payable",
      "type": "function"
    },
    {
      "inputs": [
        {
          "internalType": "address",
          "name": "contractMintedFrom",
          "type": "address"
        },
        {
          "internalType": "uint256",
          "name": "_price",
          "type": "uint256"
        },
        {
          "internalType": "uint256",
          "name": "tokenId",
          "type": "uint256"
        }
      ],
      "name": "createVaultItem",
      "outputs": [],
      "stateMutability": "payable",
      "type": "function"
    },
    {
      "inputs": [],
      "name": "getAvailableNFT",
      "outputs": [
        {
          "components": [
            {
              "internalType": "uint256",
              "name": "tokenId",
              "type": "uint256"
            },
            {
              "internalType": "uint256",
              "name": "itemId",
              "type": "uint256"
            },
            {
              "internalType": "address",
              "name": "contractMintedFrom",
              "type": "address"
            },
            {
              "internalType": "address payable",
              "name": "seller",
              "type": "address"
            },
            {
              "internalType": "address payable",
              "name": "owner",
              "type": "address"
            },
            {
              "internalType": "uint256",
              "name": "price",
              "type": "uint256"
            },
            {
              "internalType": "bool",
              "name": "sold",
              "type": "bool"
            },
            {
              "internalType": "bool",
              "name": "exists",
              "type": "bool"
            }
          ],
          "internalType": "struct imagicaMarket.vaultItem[]",
          "name": "",
          "type": "tuple[]"
        }
      ],
      "stateMutability": "view",
      "type": "function"
    },
    {
      "inputs": [],
      "name": "getMyNFt",
      "outputs": [
        {
          "components": [
            {
              "internalType": "uint256",
              "name": "tokenId",
              "type": "uint256"
            },
            {
              "internalType": "uint256",
              "name": "itemId",
              "type": "uint256"
            },
            {
              "internalType": "address",
              "name": "contractMintedFrom",
              "type": "address"
            },
            {
              "internalType": "address payable",
              "name": "seller",
              "type": "address"
            },
            {
              "internalType": "address payable",
              "name": "owner",
              "type": "address"
            },
            {
              "internalType": "uint256",
              "name": "price",
              "type": "uint256"
            },
            {
              "internalType": "bool",
              "name": "sold",
              "type": "bool"
            },
            {
              "internalType": "bool",
              "name": "exists",
              "type": "bool"
            }
          ],
          "internalType": "struct imagicaMarket.vaultItem[]",
          "name": "",
          "type": "tuple[]"
        }
      ],
      "stateMutability": "view",
      "type": "function"
    },
    {
      "inputs": [],
      "name": "listingFees",
      "outputs": [
        {
          "internalType": "uint256",
          "name": "",
          "type": "uint256"
        }
      ],
      "stateMutability": "view",
      "type": "function"
    },
    {
      "inputs": [],
      "name": "mintingFees",
      "outputs": [
        {
          "internalType": "uint256",
          "name": "",
          "type": "uint256"
        }
      ],
      "stateMutability": "view",
      "type": "function"
    },
    {
      "inputs": [
        {
          "internalType": "address",
          "name": "operator",
          "type": "address"
        },
        {
          "internalType": "address",
          "name": "from",
          "type": "address"
        },
        {
          "internalType": "uint256",
          "name": "tokenId",
          "type": "uint256"
        },
        {
          "internalType": "bytes",
          "name": "data",
          "type": "bytes"
        }
      ],
      "name": "onERC721Received",
      "outputs": [
        {
          "internalType": "bytes4",
          "name": "",
          "type": "bytes4"
        }
      ],
      "stateMutability": "nonpayable",
      "type": "function"
    }
  ],
  "bytecode": "0x60806040526611c37937e0800060045566038d7ea4c6800060055534801561002657600080fd5b50600160008190555033600360006101000a81548173ffffffffffffffffffffffffffffffffffffffff021916908373ffffffffffffffffffffffffffffffffffffffff160217905550611a1a8061007f6000396000f3fe6080604052600436106100705760003560e01c8063a706ac211161004e578063a706ac2114610108578063c19912c414610124578063cbe83d8b1461014f578063ea7959451461016b57610070565b8063150b7a02146100755780635d7e2655146100b25780638c2fa9ea146100dd575b600080fd5b34801561008157600080fd5b5061009c600480360381019061009791906110e3565b610196565b6040516100a991906111a6565b60405180910390f35b3480156100be57600080fd5b506100c76101ab565b6040516100d491906111d0565b60405180910390f35b3480156100e957600080fd5b506100f26101b1565b6040516100ff91906111d0565b60405180910390f35b610122600480360381019061011d91906111eb565b6101b7565b005b34801561013057600080fd5b50610139610548565b60405161014691906113ea565b60405180910390f35b6101696004803603810190610164919061140c565b6108e7565b005b34801561017757600080fd5b50610180610c1e565b60405161018d91906113ea565b60405180910390f35b600063150b7a0260e01b905095945050505050565b60045481565b60055481565b600260005414156101fd576040517f08c379a00000000000000000000000000000000000000000000000000000000081526004016101f4906114a9565b60405180910390fd5b600260008190555060008211610248576040517f08c379a000000000000000000000000000000000000000000000000000000000815260040161023f9061153b565b60405180910390fd5b600554341461028c576040517f08c379a0000000000000000000000000000000000000000000000000000000008152600401610283906115cd565b60405180910390fd5b6102966001610f31565b60006102a26001610f47565b90506040518061010001604052808381526020018281526020018573ffffffffffffffffffffffffffffffffffffffff1681526020013373ffffffffffffffffffffffffffffffffffffffff168152602001600073ffffffffffffffffffffffffffffffffffffffff1681526020018481526020016000151581526020016001151581525060066000838152602001908152602001600020600082015181600001556020820151816001015560408201518160020160006101000a81548173ffffffffffffffffffffffffffffffffffffffff021916908373ffffffffffffffffffffffffffffffffffffffff16021790555060608201518160030160006101000a81548173ffffffffffffffffffffffffffffffffffffffff021916908373ffffffffffffffffffffffffffffffffffffffff16021790555060808201518160040160006101000a81548173ffffffffffffffffffffffffffffffffffffffff021916908373ffffffffffffffffffffffffffffffffffffffff16021790555060a0820151816005015560c08201518160060160006101000a81548160ff02191690831515021790555060e08201518160060160016101000a81548160ff0219169083151502179055509050508373ffffffffffffffffffffffffffffffffffffffff166342842e0e3330856040518463ffffffff1660e01b81526004016104ad939291906115fc565b600060405180830381600087803b1580156104c757600080fd5b505af11580156104db573d6000803e3d6000fd5b505050508373ffffffffffffffffffffffffffffffffffffffff1681837fd34cd38ef74f4e2c8507148da71d7c0b044b0a2a8851fa5049dae7022fd8535833600088600060016040516105329594939291906116a1565b60405180910390a4506001600081905550505050565b606060006105566001610f47565b90506000811161059b576040517f08c379a000000000000000000000000000000000000000000000000000000000815260040161059290611766565b60405180910390fd5b60008060005b83811015610641573373ffffffffffffffffffffffffffffffffffffffff16600660006001846105d191906117b5565b815260200190815260200160002060030160009054906101000a900473ffffffffffffffffffffffffffffffffffffffff1673ffffffffffffffffffffffffffffffffffffffff16141561062e57818061062a9061180b565b9250505b80806106399061180b565b9150506105a1565b5060008167ffffffffffffffff81111561065e5761065d611854565b5b60405190808252806020026020018201604052801561069757816020015b610684610f55565b81526020019060019003908161067c5790505b50905060005b848110156108dc573373ffffffffffffffffffffffffffffffffffffffff16600660006001846106cd91906117b5565b815260200190815260200160002060030160009054906101000a900473ffffffffffffffffffffffffffffffffffffffff1673ffffffffffffffffffffffffffffffffffffffff1614156108c9576006600060018361072c91906117b5565b81526020019081526020016000206040518061010001604052908160008201548152602001600182015481526020016002820160009054906101000a900473ffffffffffffffffffffffffffffffffffffffff1673ffffffffffffffffffffffffffffffffffffffff1673ffffffffffffffffffffffffffffffffffffffff1681526020016003820160009054906101000a900473ffffffffffffffffffffffffffffffffffffffff1673ffffffffffffffffffffffffffffffffffffffff1673ffffffffffffffffffffffffffffffffffffffff1681526020016004820160009054906101000a900473ffffffffffffffffffffffffffffffffffffffff1673ffffffffffffffffffffffffffffffffffffffff1673ffffffffffffffffffffffffffffffffffffffff168152602001600582015481526020016006820160009054906101000a900460ff161515151581526020016006820160019054906101000a900460ff1615151515815250508285815181106108af576108ae611883565b5b602002602001018190525083806108c59061180b565b9450505b80806108d49061180b565b91505061069d565b508094505050505090565b6002600054141561092d576040517f08c379a0000000000000000000000000000000000000000000000000000000008152600401610924906114a9565b60405180910390fd5b6002600081905550600115156006600083815260200190815260200160002060060160019054906101000a900460ff1615151461099f576040517f08c379a000000000000000000000000000000000000000000000000000000000815260040161099690611924565b60405180910390fd5b600060066000838152602001908152602001600020600501549050600060066000848152602001908152602001600020600001549050813414610a17576040517f08c379a0000000000000000000000000000000000000000000000000000000008152600401610a0e90611990565b60405180910390fd5b6006600084815260200190815260200160002060030160009054906101000a900473ffffffffffffffffffffffffffffffffffffffff1673ffffffffffffffffffffffffffffffffffffffff166108fc839081150290604051600060405180830381858888f19350505050158015610a93573d6000803e3d6000fd5b508373ffffffffffffffffffffffffffffffffffffffff166342842e0e3033846040518463ffffffff1660e01b8152600401610ad1939291906115fc565b600060405180830381600087803b158015610aeb57600080fd5b505af1158015610aff573d6000803e3d6000fd5b50505050336006600085815260200190815260200160002060040160006101000a81548173ffffffffffffffffffffffffffffffffffffffff021916908373ffffffffffffffffffffffffffffffffffffffff16021790555060016006600085815260200190815260200160002060060160006101000a81548160ff021916908315150217905550610b916002610f31565b6006600084815260200190815260200160002060040160009054906101000a900473ffffffffffffffffffffffffffffffffffffffff1673ffffffffffffffffffffffffffffffffffffffff166108fc6004549081150290604051600060405180830381858888f19350505050158015610c0f573d6000803e3d6000fd5b50505060016000819055505050565b60606000610c2c6001610f47565b905060008111610c71576040517f08c379a0000000000000000000000000000000000000000000000000000000008152600401610c6890611766565b60405180910390fd5b600080610c7e6002610f47565b83610c8991906119b0565b905060008167ffffffffffffffff811115610ca757610ca6611854565b5b604051908082528060200260200182016040528015610ce057816020015b610ccd610f55565b815260200190600190039081610cc55790505b50905060005b84811015610f2657600073ffffffffffffffffffffffffffffffffffffffff1660066000600184610d1791906117b5565b815260200190815260200160002060040160009054906101000a900473ffffffffffffffffffffffffffffffffffffffff1673ffffffffffffffffffffffffffffffffffffffff161415610f135760066000600183610d7691906117b5565b81526020019081526020016000206040518061010001604052908160008201548152602001600182015481526020016002820160009054906101000a900473ffffffffffffffffffffffffffffffffffffffff1673ffffffffffffffffffffffffffffffffffffffff1673ffffffffffffffffffffffffffffffffffffffff1681526020016003820160009054906101000a900473ffffffffffffffffffffffffffffffffffffffff1673ffffffffffffffffffffffffffffffffffffffff1673ffffffffffffffffffffffffffffffffffffffff1681526020016004820160009054906101000a900473ffffffffffffffffffffffffffffffffffffffff1673ffffffffffffffffffffffffffffffffffffffff1673ffffffffffffffffffffffffffffffffffffffff168152602001600582015481526020016006820160009054906101000a900460ff161515151581526020016006820160019054906101000a900460ff161515151581525050828581518110610ef957610ef8611883565b5b60200260200101819052508380610f0f9061180b565b9450505b8080610f1e9061180b565b915050610ce6565b508094505050505090565b6001816000016000828254019250508190555050565b600081600001549050919050565b6040518061010001604052806000815260200160008152602001600073ffffffffffffffffffffffffffffffffffffffff168152602001600073ffffffffffffffffffffffffffffffffffffffff168152602001600073ffffffffffffffffffffffffffffffffffffffff168152602001600081526020016000151581526020016000151581525090565b600080fd5b600080fd5b600073ffffffffffffffffffffffffffffffffffffffff82169050919050565b600061101582610fea565b9050919050565b6110258161100a565b811461103057600080fd5b50565b6000813590506110428161101c565b92915050565b6000819050919050565b61105b81611048565b811461106657600080fd5b50565b60008135905061107881611052565b92915050565b600080fd5b600080fd5b600080fd5b60008083601f8401126110a3576110a261107e565b5b8235905067ffffffffffffffff8111156110c0576110bf611083565b5b6020830191508360018202830111156110dc576110db611088565b5b9250929050565b6000806000806000608086880312156110ff576110fe610fe0565b5b600061110d88828901611033565b955050602061111e88828901611033565b945050604061112f88828901611069565b935050606086013567ffffffffffffffff8111156111505761114f610fe5565b5b61115c8882890161108d565b92509250509295509295909350565b60007fffffffff0000000000000000000000000000000000000000000000000000000082169050919050565b6111a08161116b565b82525050565b60006020820190506111bb6000830184611197565b92915050565b6111ca81611048565b82525050565b60006020820190506111e560008301846111c1565b92915050565b60008060006060848603121561120457611203610fe0565b5b600061121286828701611033565b935050602061122386828701611069565b925050604061123486828701611069565b9150509250925092565b600081519050919050565b600082825260208201905092915050565b6000819050602082019050919050565b61127381611048565b82525050565b6112828161100a565b82525050565b600061129382610fea565b9050919050565b6112a381611288565b82525050565b60008115159050919050565b6112be816112a9565b82525050565b610100820160008201516112db600085018261126a565b5060208201516112ee602085018261126a565b5060408201516113016040850182611279565b506060820151611314606085018261129a565b506080820151611327608085018261129a565b5060a082015161133a60a085018261126a565b5060c082015161134d60c08501826112b5565b5060e082015161136060e08501826112b5565b50505050565b600061137283836112c4565b6101008301905092915050565b6000602082019050919050565b60006113978261123e565b6113a18185611249565b93506113ac8361125a565b8060005b838110156113dd5781516113c48882611366565b97506113cf8361137f565b9250506001810190506113b0565b5085935050505092915050565b60006020820190508181036000830152611404818461138c565b905092915050565b6000806040838503121561142357611422610fe0565b5b600061143185828601611033565b925050602061144285828601611069565b9150509250929050565b600082825260208201905092915050565b7f5265656e7472616e637947756172643a207265656e7472616e742063616c6c00600082015250565b6000611493601f8361144c565b915061149e8261145d565b602082019050919050565b600060208201905081810360008301526114c281611486565b9050919050565b7f507269636520666f7220746865204e4654206d7573742062652067726561746560008201527f72207468616e205a657230000000000000000000000000000000000000000000602082015250565b6000611525602b8361144c565b9150611530826114c9565b604082019050919050565b6000602082019050818103600083015261155481611518565b9050919050565b7f506c656173652070617920746865204578616374204d696e74696e6720616d6f60008201527f756e740000000000000000000000000000000000000000000000000000000000602082015250565b60006115b760238361144c565b91506115c28261155b565b604082019050919050565b600060208201905081810360008301526115e6816115aa565b9050919050565b6115f68161100a565b82525050565b600060608201905061161160008301866115ed565b61161e60208301856115ed565b61162b60408301846111c1565b949350505050565b6000819050919050565b600061165861165361164e84610fea565b611633565b610fea565b9050919050565b600061166a8261163d565b9050919050565b600061167c8261165f565b9050919050565b61168c81611671565b82525050565b61169b816112a9565b82525050565b600060a0820190506116b66000830188611683565b6116c360208301876115ed565b6116d060408301866111c1565b6116dd6060830185611692565b6116ea6080830184611692565b9695505050505050565b7f4e6f204e6674732061726520417661696c61626c65206174207468697320537460008201527f6174650000000000000000000000000000000000000000000000000000000000602082015250565b600061175060238361144c565b915061175b826116f4565b604082019050919050565b6000602082019050818103600083015261177f81611743565b9050919050565b7f4e487b7100000000000000000000000000000000000000000000000000000000600052601160045260246000fd5b60006117c082611048565b91506117cb83611048565b9250827fffffffffffffffffffffffffffffffffffffffffffffffffffffffffffffffff03821115611800576117ff611786565b5b828201905092915050565b600061181682611048565b91507fffffffffffffffffffffffffffffffffffffffffffffffffffffffffffffffff82141561184957611848611786565b5b600182019050919050565b7f4e487b7100000000000000000000000000000000000000000000000000000000600052604160045260246000fd5b7f4e487b7100000000000000000000000000000000000000000000000000000000600052603260045260246000fd5b7f546865204e465420796f7527726520547279696e6720746f2042757920446f7360008201527f656e277420457869737420000000000000000000000000000000000000000000602082015250565b600061190e602b8361144c565b9150611919826118b2565b604082019050919050565b6000602082019050818103600083015261193d81611901565b9050919050565b7f496e73756666696369656e74205472616e73616374696f6e205661756c650000600082015250565b600061197a601e8361144c565b915061198582611944565b602082019050919050565b600060208201905081810360008301526119a98161196d565b9050919050565b60006119bb82611048565b91506119c683611048565b9250828210156119d9576119d8611786565b5b82820390509291505056fea2646970667358221220ff0747bab48dc256cdb263aaeddba98307c52157b3dbe93adfc16e34c0c1b15a64736f6c63430008090033",
  "linkReferences": {},
  "deployedLinkReferences": {}
}